:020000040800F2
:10000000002000208D0B0008C5080008C708000864
:1000100000000000000000000000000000000000E0
:10002000000000000000000000000000C9080008F7
:100030000000000000000000CB080008CD08000808
:10004000DD0B0008DD0B0008DD0B0008DD0B0008F0
:10005000DD0B0008D1080008DD0B0008DD0B0008EF
:1000600000000000DD0B0008DD0B0008DD0B0008C0
:10007000DD0B0008DD0B0008000000000D09000882
:100080000000000000000000000000000000000070
:10009000DD0B000800000000DD0B0008DD0B000890
:1000A00000000000DD0B0008000000000000000060
:1000B000DD0B0008DD0B0008000000000000000060
:1000C000002243088B4274D303098B425FD3030A97
:1000D0008B4244D3030B8B4228D3030C8B420DD3AA
:1000E000FF22090212BA030C8B4202D31212090238
:1000F00065D0030B8B4219D300E0090AC30B8B4276
:1001000001D3CB03C01A5241830B8B4201D38B0323
:10011000C01A5241430B8B4201D34B03C01A5241C8
:10012000030B8B4201D30B03C01A5241C30A8B420B
:1001300001D3CB02C01A5241830A8B4201D38B02F6
:10014000C01A5241430A8B4201D34B02C01A52419A
:10015000030A8B4201D30B02C01A5241CDD2C3090C
:100160008B4201D3CB01C01A524183098B4201D388
:100170008B01C01A524143098B4201D34B01C01A73
:10018000524103098B4201D30B01C01A5241C308EB
:100190008B4201D3CB00C01A524183088B4201D35A
:1001A0008B00C01A524143088B4201D34B00C01A46
:1001B0005241411A00D20146524110467047FFE7B2
:1001C00001B5002000F006F802BDC0460029F7D0B6
:1001D00076E770477047C0460448054B10B5834228
:1001E00003D0044B002B00D0984710BD0400002022
:1001F000040000200000000006480749091A8B107F
:10020000C90FC91810B5491003D0044B002B00D0FA
:10021000984710BD040000200400002000000000EA
:1002200010B5074C2378002B09D1FFF7D5FF054BFC
:10023000002B02D0044800E000BF0123237010BD52
:100240000400002000000000380C0008054B10B529
:10025000002B03D00449054800E000BFFFF7CCFFA6
:1002600010BDC0460000000008000020380C000847
:10027000002903D0A023DB0598617047A023DB058C
:100280009862FAE770B5002802DB05B20024A2E00C
:1002900045422DB200244DE001212020FFF7E8FF68
:1002A00000214020FFF7E4FF00218020FFF7E0FF5E
:1002B00000211020FFF7DCFF032000F04BFC0021A1
:1002C0002020FFF7D5FF01214020FFF7D1FF0021BB
:1002D0008020FFF7CDFF00211020FFF7C9FF03208A
:1002E00000F038FC00212020FFF7C2FF0021402051
:1002F000FFF7BEFF01218020FFF7BAFF0021102089
:10030000FFF7B6FF032000F025FC00212020FFF7B7
:10031000AFFF00214020FFF7ABFF00218020FFF757
:10032000A7FF01211020FFF7A3FF032000F012FC1C
:10033000013424B2AC42AFDB4FE000212020FFF7B4
:1003400097FF00214020FFF793FF00218020FFF757
:100350008FFF01211020FFF78BFF032000F0FAFB35
:1003600000212020FFF784FF00214020FFF780FFBD
:1003700001218020FFF77CFF00211020FFF778FF8C
:10038000032000F0E7FB00212020FFF771FF01218F
:100390004020FFF76DFF00218020FFF769FF00215B
:1003A0001020FFF765FF032000F0D4FB012120207F
:1003B000FFF75EFF00214020FFF75AFF0021802059
:1003C000FFF756FF00211020FFF752FF032000F037
:1003D000C1FB013424B2AC42AFDB00211020FFF797
:1003E00047FF00212020FFF743FF00218020FFF777
:1003F0003FFF00214020FFF73BFF70BDA023DB053E
:100400001B6904201840431E9841C0B27047000089
:1004100010B50E4B1B78012B07D0FFF7EFFF00281C
:1004200002D10A4B00221A7010BDA023DB051B6904
:100430001B0705D4064B18684042FFF723FFECE783
:10044000034B1868FFF71EFFE7E7C0462A000020AD
:100450002400002010B50E4B1B78002B05D010BDDA
:100460000C4B18684042FFF70DFFFFF7C7FF00284D
:1004700009D1A023DB051B691B07F1D4054B1868C4
:10048000FFF700FFF1E7024B01221A70E7E7C046D1
:100490002A0000202400002010B5A023DB051B69E2
:1004A0001B0707D4B4204042FFF7ECFE104800F0D1
:1004B00051FB07E0B420FFF7E5FEF7E701204042DB
:1004C000FFF7E0FEFFF79AFF00280CD1094A1368F6
:1004D00001331360A023DB051B691B07EED4012049
:1004E000FFF7D0FEEEE7044B01221A7010BDC046A4
:1004F00088130000240000202A00002010B5294A9B
:10050000136801218B430B431360264B1B68DB07E9
:10051000FBD525490A68254B1A4080231B0113434C
:100520000B60234A136801210B431360204B1B68A7
:100530005B07FBD51E4B59681E4A114080225201B1
:100540000A435A60D9681C4A11408822D2030A43E0
:10055000DA601968802252040A431A60144B1B683F
:100560009B01FBD5124BDA68F0218A43DA60DA6826
:1005700012490A40DA60DA6811490A40DA60DA683A
:1005800003218A430A43DA60094BDA680C231340DB
:100590000C2BF9D10B4C200000F0CCFA200000F01D
:1005A000EDFA10BD0020024000700040FFE7FFFFA1
:1005B00000100240FFE0FFFFFFFF02FFFFF8FFFF18
:1005C000FFC7FFFF0048E80110B582B0354B5A6BFA
:1005D000012422435A635A6B22400192019A9A6B7A
:1005E000802149050A439A639B6B0B400093009B53
:1005F0002D490B6A1B021B0AC022120613430B6211
:10060000FFF77CFF00F05CF800F018F90221274B9F
:100610009962274BDA682243DA60DA680A43DA60C3
:10062000FFF73AFF8023DB05022252421A61DA68A3
:100630002243DA601F4B00221A8015E01E4B1B7804
:10064000002B29D18023DB051B68DB070CD417495D
:10065000486903048022920213400222824313431A
:100660008B61FA2000F076FA8023DB051B68DB073C
:10067000E4D4104B1B889BB2002BDFD00B4B022223
:100680009A618023DB050D4ADA621A6801210A4368
:100690001A60FFF7BDFED1E7FFF7DCFE064B002234
:1006A0001A70CFE70010024000ED00E00004005097
:1006B0000004014028000020200000205FEA000024
:1006C000F0B5DE4657464E464546E0B58BB008AF1E
:1006D00008220021380000F0A7FA1822002102A801
:1006E00000F0A2FA504BDA6A01263243DA62DA6A83
:1006F00032400192019ADA6A022188460A43DA629C
:10070000DB6A0A000B400093009BA024E405102341
:100710009A46A36210339946A3622033A3627E32C5
:10072000A26242498B4640468862414B9A680F213B
:100730008A439A609A68E1318A439A60E36801309B
:1007400083433343E360E368E4398B430422134378
:10075000E360E3682C32934355462B43E360236800
:100760008343236023688B43236023689343236080
:1007700008963E7100257D714146B971380000F040
:1007800047F9414608913E717D71B971380000F01A
:100790003FF9082302930395069602A9200000F072
:1007A000DBF851460291039604950595069502A93A
:1007B000200000F0D1F84946029103960495059572
:1007C000069502A9200000F0C7F840230293039683
:1007D00004950595069502A9200000F0BDF8802239
:1007E0000292039604950595069502A9200000F053
:1007F000B3F843460293039604950595069502A91E
:10080000584600F0A9F80B4BC12189005A580A48F4
:1008100002405A504A461A600BB0F0BCBB46B24682
:10082000A946A046F0BDC04600100240000400509A
:100830000000014000E100E0FF00FFFF30B587B09D
:1008400002AD10220021280000F0EEF9184A916B49
:10085000012319439163926B13400193019B154A45
:10086000C321890053581B021B0A535080231B02CB
:100870001360114B2B8000230393104A04920593BD
:100880008024E4052900200000F026F92368802256
:1008900093432360A3680A490B40A36063687021F7
:1008A0008B436360A3689343A36007B030BDC04629
:1008B0000010024000E100E0FF7C0000E7030000C0
:1008C000F8BFFFFFFEE7FEE7704770477047000084
:1008D0000C4B5B69DB0707D50A4B01225A610A4AB8
:1008E000138801339BB21380064B5B699B0707D5C6
:1008F000044B02225A61044A138801339BB21380CD
:100900007047C04600040140280000208023DB051A
:100910001B69DB0718D58023DB05022252421A61CE
:100920000A4A1388013B9BB2138013889BB2002BA9
:100930000AD18021C9050B68012293430B60044B47
:1009400002219962034B1A707047C04628000020AC
:100950000004005020000020F0B5002216E00B69D2
:100960009C46C4682B006B435E00F618F743B44303
:1009700066465E433443C4604C68022C26D04D6802
:1009800004683C406B432343036001320C6823003E
:10099000D3403BD00123934025001D401C42F4D09E
:1009A0004B68013B012BDAD88F6883682C006C43BD
:1009B00066003619B3437C43234383600E68CC68DA
:1009C0004368B343744323434360C8E7FF2D0DD806
:1009D0004C69A446066A1C006C436C4325012D1B20
:1009E000AE4365466C4334430462C8E74C69A44691
:1009F000466A2D0A2C006C436C436C4325012D1B69
:100A0000AE4365466C4334434462B8E70020F0BD12
:100A100010B503000079002850D01A68002A57D07A
:100A20005879012818D0022820D000280BD00120A6
:100A30009A79002A4BD0022A2CD0032A34D0012ADA
:100A40001ED0012043E023494C6894434C601A684F
:100A50000C6822430A60EBE71E490868904308606F
:100A60001A68486802434A600020E1E719490868AB
:100A700002430A601A68486802434A600020D7E7C8
:100A80001C68144AD168A143D1601B6891680B436C
:100A900093601CE01C680F4A9168A14391601B6839
:100AA000D1680B43D36012E019680A4A9468214365
:100AB00091601B68D1680B43D36008E01C68054A4D
:100AC0001168A1431160196853688B43536010BDCE
:100AD0000020FCE70004014003688022D205904218
:100AE00005D0114A904202D0104A904203D17022A0
:100AF00093434A6813438022D205904205D00A4AA4
:100B0000904202D0094A904203D1094A1340CA6870
:100B1000134303608B68C3620B88836243690122BD
:100B20001343436100207047000801400014014056
:100B3000FFFCFFFF10B5FA218900FFF7C1FA013869
:100B4000034B586000229A6005321A6010BDC046FF
:100B500010E000E082B0084B1B680193019B431C2E
:100B600000D00130002805D0034B1B68DB03F9D50A
:100B70000138F7E702B0704710E000E0014B186061
:100B80007047C04600000020704700000D488546B1
:100B90000D480E490E4A002302E0D458C4500433D5
:100BA000C4188C42F9D30B4A0B4C002301E01360AC
:100BB0000432A242FBD3FFF7E7FF00F011F8FFF782
:100BC00003FDFEE7002000200000002004000020BC
:100BD000580C0008040000202C000020FEE7000054
:100BE00070B500260C4C0D4D641BA410A64209D113
:100BF000002600F021F80A4C0A4D641BA410A642FE
:100C000005D170BDB300EB5898470136EEE7B3004D
:100C1000EB5898470136F2E7500C0008500C0008DA
:100C2000540C0008500C000803008218934200D1B5
:100C3000704719700133F9E7F8B5C046F8BC08BC35
:100C40009E467047F8B5C046F8BC08BC9E46704743
:040C50004D02000849
:040C54002102000871
:040C58000000200078
:0400000508000B8D57
:00000001FF
